{
  "contractName": "AccessControl",
  "abi": [
    {
      "inputs": [],
      "payable": false,
      "stateMutability": "nonpayable",
      "type": "constructor"
    },
    {
      "constant": false,
      "inputs": [],
      "name": "CreateConsumerRole",
      "outputs": [],
      "payable": false,
      "stateMutability": "nonpayable",
      "type": "function"
    },
    {
      "constant": false,
      "inputs": [],
      "name": "CreateDelivererRole",
      "outputs": [],
      "payable": false,
      "stateMutability": "nonpayable",
      "type": "function"
    },
    {
      "constant": false,
      "inputs": [],
      "name": "CreateFarmerRole",
      "outputs": [],
      "payable": false,
      "stateMutability": "nonpayable",
      "type": "function"
    },
    {
      "constant": false,
      "inputs": [],
      "name": "CreateRetailerRole",
      "outputs": [],
      "payable": false,
      "stateMutability": "nonpayable",
      "type": "function"
    },
    {
      "constant": false,
      "inputs": [],
      "name": "CreateSlaughterhouseRole",
      "outputs": [],
      "payable": false,
      "stateMutability": "nonpayable",
      "type": "function"
    }
  ],
  "bytecode": "0x608060405234801561001057600080fd5b5060bc8061001f6000396000f3fe6080604052348015600f57600080fd5b506004361060505760003560e01c806320189108146055578063435b7c5414605d57806349484acc146065578063a9a8cb5014606d578063e678994a146075575b600080fd5b605b607d565b005b6063607f565b005b606b6081565b005b60736083565b005b607b6085565b005b565b565b565b565b56fea265627a7a7231582067a21d59e74fc750c8587877db913aad2edb0fbf04c0013e07545c9e0fbe70b064736f6c63430005100032",
  "source": "pragma solidity ^0.5.16;\n\nimport \"./FarmerRole.sol\";\nimport \"./RetailerRole.sol\";\nimport \"./DelivererRole.sol\";\nimport \"./ConsumerRole.sol\";\nimport \"./SlaughterhouseRole.sol\";\n\ncontract AccessControl is FarmerRole, RetailerRole, DelivererRole, ConsumerRole, SlaughterhouseRole {\n    constructor() public {}\n\n}\n",
  "sourcePath": "/home/luksss/code/BlockChain-Example-MeatTrucker/contracts/meatAccessControl/AccessControl.sol",
  "compiler": {
    "name": "solc",
    "version": "0.5.16+commit.9c3226ce.Emscripten.clang"
  },
  "schemaVersion": "3.3.4",
  "updatedAt": "2021-11-14T19:35:23.383Z",
  "devdoc": {
    "methods": {}
  },
  "userdoc": {
    "methods": {}
  }
}