{
  "contractName": "ConsumerRole",
  "abi": [
    {
      "constant": false,
      "inputs": [],
      "name": "CreateConsumerRole",
      "outputs": [],
      "payable": false,
      "stateMutability": "nonpayable",
      "type": "function"
    }
  ],
  "bytecode": "0x6080604052348015600f57600080fd5b50606c80601d6000396000f3fe6080604052348015600f57600080fd5b506004361060285760003560e01c8063435b7c5414602d575b600080fd5b60336035565b005b56fea265627a7a72315820cd14c331411b47babe8277c51f8f6815745ae4189143e49442ed896cb3e4a0ad64736f6c63430005100032",
  "source": "pragma solidity ^0.5.16;\r\n\r\ncontract ConsumerRole {\r\n    function CreateConsumerRole()public{\r\n\r\n    }\r\n}\r\n",
  "sourcePath": "C:\\Users\\Elbar\\Documents\\Cours\\CoursCourant\\FYC\\BlockChain-Example-MeatTrucker\\contracts\\meatAccessControl\\ConsumerRole.sol",
  "compiler": {
    "name": "solc",
    "version": "0.5.16+commit.9c3226ce.Emscripten.clang"
  },
  "schemaVersion": "3.4.3",
  "updatedAt": "2021-11-15T09:43:47.777Z",
  "devdoc": {
    "methods": {}
  },
  "userdoc": {
    "methods": {}
  }
}