{
  "contractName": "ConsumerRole",
  "abi": [
    {
      "constant": false,
      "inputs": [],
      "name": "CreateConsumerRole",
      "outputs": [],
      "payable": false,
      "stateMutability": "nonpayable",
      "type": "function"
    }
  ],
  "bytecode": "0x6080604052348015600f57600080fd5b50606c80601d6000396000f3fe6080604052348015600f57600080fd5b506004361060285760003560e01c8063435b7c5414602d575b600080fd5b60336035565b005b56fea265627a7a7231582076f3484695238a45dfd1383c832df60f1ff49d6e4f4d5f4612aa8d11fab0708664736f6c63430005100032",
  "source": "pragma solidity ^0.5.16;\n\ncontract ConsumerRole {\n    function CreateConsumerRole()public{\n\n    }\n}\n",
  "sourcePath": "/home/luksss/code/BlockChain-Example-MeatTrucker/contracts/meatAccessControl/ConsumerRole.sol",
  "compiler": {
    "name": "solc",
    "version": "0.5.16+commit.9c3226ce.Emscripten.clang"
  },
  "schemaVersion": "3.3.4",
  "updatedAt": "2021-11-14T19:35:23.384Z",
  "devdoc": {
    "methods": {}
  },
  "userdoc": {
    "methods": {}
  }
}