{
  "contractName": "DelivererRole",
  "abi": [
    {
      "constant": false,
      "inputs": [],
      "name": "CreateDelivererRole",
      "outputs": [],
      "payable": false,
      "stateMutability": "nonpayable",
      "type": "function"
    }
  ],
  "bytecode": "0x6080604052348015600f57600080fd5b50606c80601d6000396000f3fe6080604052348015600f57600080fd5b506004361060285760003560e01c80632018910814602d575b600080fd5b60336035565b005b56fea265627a7a72315820d9522224edcfb54f4e59da37bcc1a13a49a91e9193df2cd820a860d78e42f7fe64736f6c63430005100032",
  "source": "pragma solidity ^0.5.16;\r\n\r\ncontract DelivererRole {\r\n    function CreateDelivererRole()public{\r\n\r\n    }\r\n}\r\n",
  "sourcePath": "C:\\Users\\Elbar\\Documents\\Cours\\CoursCourant\\FYC\\BlockChain-Example-MeatTrucker\\contracts\\meatAccessControl\\DelivererRole.sol",
  "compiler": {
    "name": "solc",
    "version": "0.5.16+commit.9c3226ce.Emscripten.clang"
  },
  "schemaVersion": "3.4.3",
  "updatedAt": "2021-11-15T09:43:47.778Z",
  "devdoc": {
    "methods": {}
  },
  "userdoc": {
    "methods": {}
  }
}