{
  "contractName": "FarmerRole",
  "abi": [
    {
      "constant": false,
      "inputs": [],
      "name": "CreateFarmerRole",
      "outputs": [],
      "payable": false,
      "stateMutability": "nonpayable",
      "type": "function"
    }
  ],
  "bytecode": "0x6080604052348015600f57600080fd5b50606c80601d6000396000f3fe6080604052348015600f57600080fd5b506004361060285760003560e01c8063e678994a14602d575b600080fd5b60336035565b005b56fea265627a7a72315820f34657459e587511a4e7c88e2881a576312b930056be3d839ff01ae731c0628764736f6c63430005100032",
  "source": "pragma solidity ^0.5.16;\n\ncontract FarmerRole {\n    function CreateFarmerRole()public{\n\n    }\n}\n",
  "sourcePath": "/home/luksss/code/BlockChain-Example-MeatTrucker/contracts/meatAccessControl/FarmerRole.sol",
  "compiler": {
    "name": "solc",
    "version": "0.5.16+commit.9c3226ce.Emscripten.clang"
  },
  "schemaVersion": "3.3.4",
  "updatedAt": "2021-11-14T19:35:23.384Z",
  "devdoc": {
    "methods": {}
  },
  "userdoc": {
    "methods": {}
  }
}