{
  "contractName": "FarmerRole",
  "abi": [
    {
      "constant": false,
      "inputs": [],
      "name": "CreateFarmerRole",
      "outputs": [],
      "payable": false,
      "stateMutability": "nonpayable",
      "type": "function"
    }
  ],
  "bytecode": "0x6080604052348015600f57600080fd5b50606c80601d6000396000f3fe6080604052348015600f57600080fd5b506004361060285760003560e01c8063e678994a14602d575b600080fd5b60336035565b005b56fea265627a7a72315820bd37ed7cd9beb79b9f3eefb6d4a64efae952237ee9cdd5cd524684a8e6e9ebae64736f6c63430005100032",
  "source": "pragma solidity ^0.5.16;\r\n\r\ncontract FarmerRole {\r\n    function CreateFarmerRole()public{\r\n\r\n    }\r\n}\r\n",
  "sourcePath": "C:\\Users\\Elbar\\Documents\\Cours\\CoursCourant\\FYC\\BlockChain-Example-MeatTrucker\\contracts\\meatAccessControl\\FarmerRole.sol",
  "compiler": {
    "name": "solc",
    "version": "0.5.16+commit.9c3226ce.Emscripten.clang"
  },
  "schemaVersion": "3.4.3",
  "updatedAt": "2021-11-15T09:43:47.779Z",
  "devdoc": {
    "methods": {}
  },
  "userdoc": {
    "methods": {}
  }
}