{
  "contractName": "Responsability",
  "abi": [
    {
      "constant": false,
      "inputs": [],
      "name": "CreateResponsability",
      "outputs": [],
      "payable": false,
      "stateMutability": "nonpayable",
      "type": "function"
    }
  ],
  "bytecode": "0x6080604052348015600f57600080fd5b50606c80601d6000396000f3fe6080604052348015600f57600080fd5b506004361060285760003560e01c806370f6659314602d575b600080fd5b60336035565b005b56fea265627a7a723158207024a71768435b9195d33f4c8060ef6f47017733b75a8c6c90cc1a99158918db64736f6c63430005100032",
  "source": "pragma solidity ^0.5.16;\r\n\r\ncontract Responsability {\r\n    function CreateResponsability()public{\r\n\r\n    }\r\n}\r\n",
  "sourcePath": "C:\\Users\\Elbar\\Documents\\Cours\\CoursCourant\\FYC\\BlockChain-Example-MeatTrucker\\contracts\\meatResponsability\\Responsability.sol",
  "compiler": {
    "name": "solc",
    "version": "0.5.16+commit.9c3226ce.Emscripten.clang"
  },
  "schemaVersion": "3.4.3",
  "updatedAt": "2021-11-15T09:43:47.781Z",
  "devdoc": {
    "methods": {}
  },
  "userdoc": {
    "methods": {}
  }
}