{
  "contractName": "Responsability",
  "abi": [
    {
      "constant": false,
      "inputs": [],
      "name": "CreateResponsability",
      "outputs": [],
      "payable": false,
      "stateMutability": "nonpayable",
      "type": "function"
    }
  ],
  "bytecode": "0x6080604052348015600f57600080fd5b50606c80601d6000396000f3fe6080604052348015600f57600080fd5b506004361060285760003560e01c806370f6659314602d575b600080fd5b60336035565b005b56fea265627a7a72315820a7b707b965906cff2e345532304c570dfb08db280769525fc8e92dd8ea918a1364736f6c63430005100032",
  "source": "pragma solidity ^0.5.16;\n\ncontract Responsability {\n    function CreateResponsability()public{\n\n    }\n}\n",
  "sourcePath": "/home/luksss/code/BlockChain-Example-MeatTrucker/contracts/meatResponsability/Responsability.sol",
  "compiler": {
    "name": "solc",
    "version": "0.5.16+commit.9c3226ce.Emscripten.clang"
  },
  "schemaVersion": "3.3.4",
  "updatedAt": "2021-11-14T19:35:23.385Z",
  "devdoc": {
    "methods": {}
  },
  "userdoc": {
    "methods": {}
  }
}