{
  "contractName": "RetailerRole",
  "abi": [
    {
      "constant": false,
      "inputs": [],
      "name": "CreateRetailerRole",
      "outputs": [],
      "payable": false,
      "stateMutability": "nonpayable",
      "type": "function"
    }
  ],
  "bytecode": "0x6080604052348015600f57600080fd5b50606c80601d6000396000f3fe6080604052348015600f57600080fd5b506004361060285760003560e01c806349484acc14602d575b600080fd5b60336035565b005b56fea265627a7a72315820397cacf3c46f7cc54733fb671ee4054bb48dba9fb6af931e17c111b9dc97d9e964736f6c63430005100032",
  "source": "pragma solidity ^0.5.16;\n\ncontract RetailerRole {\n    function CreateRetailerRole()public{\n\n    }\n}\n",
  "sourcePath": "/home/luksss/code/BlockChain-Example-MeatTrucker/contracts/meatAccessControl/RetailerRole.sol",
  "compiler": {
    "name": "solc",
    "version": "0.5.16+commit.9c3226ce.Emscripten.clang"
  },
  "schemaVersion": "3.3.4",
  "updatedAt": "2021-11-14T19:35:23.384Z",
  "devdoc": {
    "methods": {}
  },
  "userdoc": {
    "methods": {}
  }
}