{
  "contractName": "SlaughterhouseRole",
  "abi": [
    {
      "constant": false,
      "inputs": [],
      "name": "CreateSlaughterhouseRole",
      "outputs": [],
      "payable": false,
      "stateMutability": "nonpayable",
      "type": "function"
    }
  ],
  "bytecode": "0x6080604052348015600f57600080fd5b50606c80601d6000396000f3fe6080604052348015600f57600080fd5b506004361060285760003560e01c8063a9a8cb5014602d575b600080fd5b60336035565b005b56fea265627a7a7231582084e4370ff56e44d53e0295ec865a0fbcf6876677628e2aa136e5fddd2214b5a064736f6c63430005100032",
  "source": "pragma solidity ^0.5.16;\n\ncontract SlaughterhouseRole {\n    function CreateSlaughterhouseRole()public{\n\n    }\n}\n",
  "sourcePath": "/home/luksss/code/BlockChain-Example-MeatTrucker/contracts/meatAccessControl/SlaughterhouseRole.sol",
  "compiler": {
    "name": "solc",
    "version": "0.5.16+commit.9c3226ce.Emscripten.clang"
  },
  "schemaVersion": "3.3.4",
  "updatedAt": "2021-11-14T19:35:23.385Z",
  "devdoc": {
    "methods": {}
  },
  "userdoc": {
    "methods": {}
  }
}