{
  "contractName": "SlaughterhouseRole",
  "abi": [
    {
      "constant": false,
      "inputs": [],
      "name": "CreateSlaughterhouseRole",
      "outputs": [],
      "payable": false,
      "stateMutability": "nonpayable",
      "type": "function"
    }
  ],
  "bytecode": "0x6080604052348015600f57600080fd5b50606c80601d6000396000f3fe6080604052348015600f57600080fd5b506004361060285760003560e01c8063a9a8cb5014602d575b600080fd5b60336035565b005b56fea265627a7a72315820ec2f20b449bf37362f125b53fe1f1a12546290b4a54dd1ac8ac03d68a0e49b3164736f6c63430005100032",
  "source": "pragma solidity ^0.5.16;\r\n\r\ncontract SlaughterhouseRole {\r\n    function CreateSlaughterhouseRole()public{\r\n\r\n    }\r\n}\r\n",
  "sourcePath": "C:\\Users\\Elbar\\Documents\\Cours\\CoursCourant\\FYC\\BlockChain-Example-MeatTrucker\\contracts\\meatAccessControl\\SlaughterhouseRole.sol",
  "compiler": {
    "name": "solc",
    "version": "0.5.16+commit.9c3226ce.Emscripten.clang"
  },
  "schemaVersion": "3.4.3",
  "updatedAt": "2021-11-15T09:43:47.781Z",
  "devdoc": {
    "methods": {}
  },
  "userdoc": {
    "methods": {}
  }
}