{
  "contractName": "Supplychain",
  "abi": [
    {
      "constant": false,
      "inputs": [],
      "name": "CreateSupplychain",
      "outputs": [],
      "payable": false,
      "stateMutability": "nonpayable",
      "type": "function"
    }
  ],
  "bytecode": "0x6080604052348015600f57600080fd5b50606c80601d6000396000f3fe6080604052348015600f57600080fd5b506004361060285760003560e01c8063efc657ef14602d575b600080fd5b60336035565b005b56fea265627a7a72315820f6877c470fcbf187f9b950ff39ab306263e922b558e6b938b090241841e7ab5764736f6c63430005100032",
  "source": "pragma solidity ^0.5.16;\r\n\r\ncontract Supplychain {\r\n    function CreateSupplychain()public{\r\n\r\n    }\r\n}\r\n",
  "sourcePath": "C:\\Users\\Elbar\\Documents\\Cours\\CoursCourant\\FYC\\BlockChain-Example-MeatTrucker\\contracts\\meatSupplyChain\\Supplychain.sol",
  "compiler": {
    "name": "solc",
    "version": "0.5.16+commit.9c3226ce.Emscripten.clang"
  },
  "schemaVersion": "3.4.3",
  "updatedAt": "2021-11-15T09:43:47.782Z",
  "devdoc": {
    "methods": {}
  },
  "userdoc": {
    "methods": {}
  }
}