{
  "contractName": "Supplychain",
  "abi": [
    {
      "constant": false,
      "inputs": [],
      "name": "CreateSupplychain",
      "outputs": [],
      "payable": false,
      "stateMutability": "nonpayable",
      "type": "function"
    }
  ],
  "bytecode": "0x6080604052348015600f57600080fd5b50606c80601d6000396000f3fe6080604052348015600f57600080fd5b506004361060285760003560e01c8063efc657ef14602d575b600080fd5b60336035565b005b56fea265627a7a72315820c0cb5590fb8aaf73cf2068a1250c8b9a22edfed8f77388543ce043fbdb7a116b64736f6c63430005100032",
  "source": "pragma solidity ^0.5.16;\n\ncontract Supplychain {\n    function CreateSupplychain()public{\n\n    }\n}\n",
  "sourcePath": "/home/luksss/code/BlockChain-Example-MeatTrucker/contracts/meatSupplyChain/Supplychain.sol",
  "compiler": {
    "name": "solc",
    "version": "0.5.16+commit.9c3226ce.Emscripten.clang"
  },
  "schemaVersion": "3.3.4",
  "updatedAt": "2021-11-14T19:35:23.385Z",
  "devdoc": {
    "methods": {}
  },
  "userdoc": {
    "methods": {}
  }
}